:100000000C945C000C9479000C9479000C947900A9
:100010000C9479000C9479000C9479000C9479007C
:100020000C9479000C9479000C9479000C9479006C
:100030000C9479000C9479000C9479000C9479005C
:100040000C94F3000C9479000C9479000C947900D2
:100050000C9479000C9479000C9479000C9479003C
:100060000C9479000C947900000000080002010053
:100070000003040700000000000000000102040863
:100080001020408001020408102001020408102002
:10009000040404040404040402020202020203032E
:1000A0000303030300000000250028002B000000CC
:1000B0000000240027002A0011241FBECFEFD8E043
:1000C000DEBFCDBF11E0A0E0B1E0E2E3F5E002C0A9
:1000D00005900D92A230B107D9F721E0A2E0B1E07E
:1000E00001C01D92A131B207E1F70E94E4000C9417
:1000F00097020C940000EF92FF920F931F93CF93FF
:10010000DF937C019C0197FF02C02F5F3F4FE90105
:10011000D595C79502E010E0C017D107ECF0C701F4
:10012000B8010E946F02892BA1F461E08DE00E946A
:100130003E026CED75E080E090E00E94620160E0BC
:100140008DE00E943E0264EF71E080E090E00E944A
:1001500062010F5F1F4FE0CFDF91CF911F910F9191
:10016000FF90EF90089561E08DE00C9402024091C1
:1001700002015091030180910601909107012091A5
:10018000000130910101820F931F9093050180932C
:100190000401452B41F03093070120930601909311
:1001A00001018093000180910401909105010E945A
:1001B0007B008091020190910301019690930301CD
:1001C00080930201089508950E949E010E94E30019
:1001D0000E94B300C0E0D0E00E94B7002097E1F396
:1001E0000E940000F9CF1F920F920FB60F921124B8
:1001F0002F933F938F939F93AF93BF938091090168
:1002000090910A01A0910B01B0910C01309108016D
:1002100023E0230F2D3720F40196A11DB11D05C049
:1002200026E8230F0296A11DB11D2093080180939B
:10023000090190930A01A0930B01B0930C018091E6
:100240000D0190910E01A0910F01B0911001019646
:10025000A11DB11D80930D0190930E01A0930F017C
:10026000B0931001BF91AF919F918F913F912F91CA
:100270000F900FBE0F901F9018953FB7F894809184
:100280000D0190910E01A0910F01B091100126B5C2
:10029000A89B05C02F3F19F00196A11DB11D3FBFBE
:1002A000BA2FA92F982F8827820F911DA11DB11D4C
:1002B000BC01CD0142E0660F771F881F991F4A9548
:1002C000D1F708958F929F92AF92BF92CF92DF9213
:1002D000EF92FF926B017C010E943D014B015C019A
:1002E000C114D104E104F10401F10E946E020E94E4
:1002F0003D01DC01CB0188199909AA09BB09883E97
:100300009340A105B10560F321E0C21AD108E108CC
:10031000F10888EE880E83E0981EA11CB11CC11460
:10032000D104E104F10419F7DBCFFF90EF90DF90E7
:10033000CF90BF90AF909F908F900895789484B5A0
:10034000826084BD84B5816084BD85B5826085BDD1
:1003500085B5816085BDEEE6F0E0808181608083B7
:10036000E1E8F0E01082808182608083808181609A
:100370008083E0E8F0E0808181608083E1EBF0E061
:10038000808184608083E0EBF0E080818160808305
:10039000EAE7F0E0808184608083808182608083EE
:1003A0008081816080838081806880831092C10019
:1003B0000895833081F028F4813099F08230A1F0E3
:1003C00008958730A9F08830B9F08430D1F4809155
:1003D00080008F7D03C0809180008F7780938000A4
:1003E000089584B58F7702C084B58F7D84BD08954C
:1003F0008091B0008F7703C08091B0008F7D809393
:10040000B0000895CF93DF9390E0FC01E458FF4FD4
:100410002491FC01E057FF4F8491882361F190E023
:10042000880F991FFC01E255FF4FC591D491FC0143
:10043000EC55FF4FA591B491611109C09FB7F89495
:100440008881209582238883EC912E230BC0623013
:1004500061F49FB7F8943881822F80958323888335
:10046000EC912E2B2C939FBF06C08FB7F894E88198
:100470002E2B28838FBFDF91CF9108951F93CF93A9
:10048000DF93282F30E0F901E859FF4F8491F901FB
:10049000E458FF4FD491F901E057FF4FC491CC23AA
:1004A000C9F0162F81110E94D901EC2FF0E0EE0F58
:1004B000FF1FEC55FF4FA591B4918FB7F894111120
:1004C00005C09C91ED2FE095E92302C0EC91ED2B46
:1004D000EC938FBFDF91CF911F910895089597FB03
:1004E000072E16F4009407D077FD09D00E948302EE
:1004F00007FC05D03EF4909581959F4F0895709527
:1005000061957F4F0895AA1BBB1B51E107C0AA1F2D
:10051000BB1FA617B70710F0A61BB70B881F991FA4
:100520005A95A9F780959095BC01CD010895F8944E
:02053000FFCFFB
:020532000100C6
:00000001FF
